{
  "contractName": "DbeliaMintNFT",
  "abi": [
    {
      "inputs": [
        {
          "internalType": "string",
          "name": "_name",
          "type": "string"
        },
        {
          "internalType": "string",
          "name": "_symbol",
          "type": "string"
        }
      ],
      "stateMutability": "nonpayable",
      "type": "constructor"
    },
    {
      "anonymous": false,
      "inputs": [
        {
          "indexed": true,
          "internalType": "address",
          "name": "owner",
          "type": "address"
        },
        {
          "indexed": true,
          "internalType": "address",
          "name": "approved",
          "type": "address"
        },
        {
          "indexed": true,
          "internalType": "uint256",
          "name": "tokenId",
          "type": "uint256"
        }
      ],
      "name": "Approval",
      "type": "event"
    },
    {
      "anonymous": false,
      "inputs": [
        {
          "indexed": true,
          "internalType": "address",
          "name": "owner",
          "type": "address"
        },
        {
          "indexed": true,
          "internalType": "address",
          "name": "operator",
          "type": "address"
        },
        {
          "indexed": false,
          "internalType": "bool",
          "name": "approved",
          "type": "bool"
        }
      ],
      "name": "ApprovalForAll",
      "type": "event"
    },
    {
      "anonymous": false,
      "inputs": [
        {
          "indexed": false,
          "internalType": "string",
          "name": "cardId",
          "type": "string"
        },
        {
          "indexed": false,
          "internalType": "string",
          "name": "edition",
          "type": "string"
        },
        {
          "indexed": false,
          "internalType": "string",
          "name": "tokenURI",
          "type": "string"
        },
        {
          "indexed": false,
          "internalType": "uint256",
          "name": "newTokenId",
          "type": "uint256"
        }
      ],
      "name": "MintWithETH",
      "type": "event"
    },
    {
      "anonymous": false,
      "inputs": [
        {
          "indexed": false,
          "internalType": "address",
          "name": "userId",
          "type": "address"
        },
        {
          "indexed": false,
          "internalType": "string",
          "name": "cardId",
          "type": "string"
        },
        {
          "indexed": false,
          "internalType": "string",
          "name": "edition",
          "type": "string"
        },
        {
          "indexed": false,
          "internalType": "string",
          "name": "tokenURI",
          "type": "string"
        },
        {
          "indexed": false,
          "internalType": "uint256",
          "name": "newTokenId",
          "type": "uint256"
        }
      ],
      "name": "MintWithUSD",
      "type": "event"
    },
    {
      "anonymous": false,
      "inputs": [
        {
          "indexed": true,
          "internalType": "address",
          "name": "previousOwner",
          "type": "address"
        },
        {
          "indexed": true,
          "internalType": "address",
          "name": "newOwner",
          "type": "address"
        }
      ],
      "name": "OwnershipTransferred",
      "type": "event"
    },
    {
      "anonymous": false,
      "inputs": [
        {
          "indexed": true,
          "internalType": "address",
          "name": "from",
          "type": "address"
        },
        {
          "indexed": true,
          "internalType": "address",
          "name": "to",
          "type": "address"
        },
        {
          "indexed": true,
          "internalType": "uint256",
          "name": "tokenId",
          "type": "uint256"
        }
      ],
      "name": "Transfer",
      "type": "event"
    },
    {
      "inputs": [
        {
          "internalType": "address",
          "name": "to",
          "type": "address"
        },
        {
          "internalType": "uint256",
          "name": "tokenId",
          "type": "uint256"
        }
      ],
      "name": "approve",
      "outputs": [],
      "stateMutability": "nonpayable",
      "type": "function"
    },
    {
      "inputs": [
        {
          "internalType": "address",
          "name": "owner",
          "type": "address"
        }
      ],
      "name": "balanceOf",
      "outputs": [
        {
          "internalType": "uint256",
          "name": "",
          "type": "uint256"
        }
      ],
      "stateMutability": "view",
      "type": "function",
      "constant": true
    },
    {
      "inputs": [
        {
          "internalType": "uint256",
          "name": "tokenId",
          "type": "uint256"
        }
      ],
      "name": "getApproved",
      "outputs": [
        {
          "internalType": "address",
          "name": "",
          "type": "address"
        }
      ],
      "stateMutability": "view",
      "type": "function",
      "constant": true
    },
    {
      "inputs": [
        {
          "internalType": "address",
          "name": "owner",
          "type": "address"
        },
        {
          "internalType": "address",
          "name": "operator",
          "type": "address"
        }
      ],
      "name": "isApprovedForAll",
      "outputs": [
        {
          "internalType": "bool",
          "name": "",
          "type": "bool"
        }
      ],
      "stateMutability": "view",
      "type": "function",
      "constant": true
    },
    {
      "inputs": [],
      "name": "name",
      "outputs": [
        {
          "internalType": "string",
          "name": "",
          "type": "string"
        }
      ],
      "stateMutability": "view",
      "type": "function",
      "constant": true
    },
    {
      "inputs": [],
      "name": "owner",
      "outputs": [
        {
          "internalType": "address",
          "name": "",
          "type": "address"
        }
      ],
      "stateMutability": "view",
      "type": "function",
      "constant": true
    },
    {
      "inputs": [
        {
          "internalType": "uint256",
          "name": "tokenId",
          "type": "uint256"
        }
      ],
      "name": "ownerOf",
      "outputs": [
        {
          "internalType": "address",
          "name": "",
          "type": "address"
        }
      ],
      "stateMutability": "view",
      "type": "function",
      "constant": true
    },
    {
      "inputs": [],
      "name": "renounceOwnership",
      "outputs": [],
      "stateMutability": "nonpayable",
      "type": "function"
    },
    {
      "inputs": [
        {
          "internalType": "address",
          "name": "from",
          "type": "address"
        },
        {
          "internalType": "address",
          "name": "to",
          "type": "address"
        },
        {
          "internalType": "uint256",
          "name": "tokenId",
          "type": "uint256"
        }
      ],
      "name": "safeTransferFrom",
      "outputs": [],
      "stateMutability": "nonpayable",
      "type": "function"
    },
    {
      "inputs": [
        {
          "internalType": "address",
          "name": "from",
          "type": "address"
        },
        {
          "internalType": "address",
          "name": "to",
          "type": "address"
        },
        {
          "internalType": "uint256",
          "name": "tokenId",
          "type": "uint256"
        },
        {
          "internalType": "bytes",
          "name": "_data",
          "type": "bytes"
        }
      ],
      "name": "safeTransferFrom",
      "outputs": [],
      "stateMutability": "nonpayable",
      "type": "function"
    },
    {
      "inputs": [
        {
          "internalType": "address",
          "name": "operator",
          "type": "address"
        },
        {
          "internalType": "bool",
          "name": "approved",
          "type": "bool"
        }
      ],
      "name": "setApprovalForAll",
      "outputs": [],
      "stateMutability": "nonpayable",
      "type": "function"
    },
    {
      "inputs": [
        {
          "internalType": "bytes4",
          "name": "interfaceId",
          "type": "bytes4"
        }
      ],
      "name": "supportsInterface",
      "outputs": [
        {
          "internalType": "bool",
          "name": "",
          "type": "bool"
        }
      ],
      "stateMutability": "view",
      "type": "function",
      "constant": true
    },
    {
      "inputs": [],
      "name": "symbol",
      "outputs": [
        {
          "internalType": "string",
          "name": "",
          "type": "string"
        }
      ],
      "stateMutability": "view",
      "type": "function",
      "constant": true
    },
    {
      "inputs": [
        {
          "internalType": "uint256",
          "name": "tokenId",
          "type": "uint256"
        }
      ],
      "name": "tokenURI",
      "outputs": [
        {
          "internalType": "string",
          "name": "",
          "type": "string"
        }
      ],
      "stateMutability": "view",
      "type": "function",
      "constant": true
    },
    {
      "inputs": [
        {
          "internalType": "address",
          "name": "from",
          "type": "address"
        },
        {
          "internalType": "address",
          "name": "to",
          "type": "address"
        },
        {
          "internalType": "uint256",
          "name": "tokenId",
          "type": "uint256"
        }
      ],
      "name": "transferFrom",
      "outputs": [],
      "stateMutability": "nonpayable",
      "type": "function"
    },
    {
      "inputs": [
        {
          "internalType": "address",
          "name": "newOwner",
          "type": "address"
        }
      ],
      "name": "transferOwnership",
      "outputs": [],
      "stateMutability": "nonpayable",
      "type": "function"
    },
    {
      "inputs": [
        {
          "internalType": "address",
          "name": "userId",
          "type": "address"
        },
        {
          "internalType": "string",
          "name": "cardId",
          "type": "string"
        },
        {
          "internalType": "string",
          "name": "edition",
          "type": "string"
        },
        {
          "internalType": "string",
          "name": "tokenURI",
          "type": "string"
        }
      ],
      "name": "mintWithUSD",
      "outputs": [
        {
          "internalType": "uint256",
          "name": "",
          "type": "uint256"
        }
      ],
      "stateMutability": "nonpayable",
      "type": "function"
    },
    {
      "inputs": [
        {
          "internalType": "string",
          "name": "cardId",
          "type": "string"
        },
        {
          "internalType": "string",
          "name": "edition",
          "type": "string"
        },
        {
          "internalType": "string",
          "name": "tokenURI",
          "type": "string"
        }
      ],
      "name": "mintWithETH",
      "outputs": [
        {
          "internalType": "uint256",
          "name": "",
          "type": "uint256"
        }
      ],
      "stateMutability": "nonpayable",
      "type": "function"
    }
  ],
  "bytecode": "0x60806040523480156200001157600080fd5b506040516200352d3803806200352d833981810160405281019062000037919062000291565b81818160009080519060200190620000519291906200016f565b5080600190805190602001906200006a9291906200016f565b50505060006200007f6200016760201b60201c565b905080600660006101000a81548173ffffffffffffffffffffffffffffffffffffffff021916908373ffffffffffffffffffffffffffffffffffffffff1602179055508073ffffffffffffffffffffffffffffffffffffffff16600073ffffffffffffffffffffffffffffffffffffffff167f8be0079c531659141344cd1fd0a4f28419497f9722a3daafe3b4186f6b6457e060405160405180910390a35033600a60006101000a81548173ffffffffffffffffffffffffffffffffffffffff021916908373ffffffffffffffffffffffffffffffffffffffff160217905550505062000435565b600033905090565b8280546200017d90620003a1565b90600052602060002090601f016020900481019282620001a15760008555620001ed565b82601f10620001bc57805160ff1916838001178555620001ed565b82800160010185558215620001ed579182015b82811115620001ec578251825591602001919060010190620001cf565b5b509050620001fc919062000200565b5090565b5b808211156200021b57600081600090555060010162000201565b5090565b600062000236620002308462000338565b62000304565b9050828152602081018484840111156200024f57600080fd5b6200025c8482856200036b565b509392505050565b600082601f8301126200027657600080fd5b8151620002888482602086016200021f565b91505092915050565b60008060408385031215620002a557600080fd5b600083015167ffffffffffffffff811115620002c057600080fd5b620002ce8582860162000264565b925050602083015167ffffffffffffffff811115620002ec57600080fd5b620002fa8582860162000264565b9150509250929050565b6000604051905081810181811067ffffffffffffffff821117156200032e576200032d62000406565b5b8060405250919050565b600067ffffffffffffffff82111562000356576200035562000406565b5b601f19601f8301169050602081019050919050565b60005b838110156200038b5780820151818401526020810190506200036e565b838111156200039b576000848401525b50505050565b60006002820490506001821680620003ba57607f821691505b60208210811415620003d157620003d0620003d7565b5b50919050565b7f4e487b7100000000000000000000000000000000000000000000000000000000600052602260045260246000fd5b7f4e487b7100000000000000000000000000000000000000000000000000000000600052604160045260246000fd5b6130e880620004456000396000f3fe608060405234801561001057600080fd5b50600436106101165760003560e01c80638da5cb5b116100a2578063c87b56dd11610071578063c87b56dd146102cb578063dab268b4146102fb578063e985e9c51461032b578063f2fde38b1461035b578063fe31614c1461037757610116565b80638da5cb5b1461025757806395d89b4114610275578063a22cb46514610293578063b88d4fde146102af57610116565b806323b872dd116100e957806323b872dd146101b557806342842e0e146101d15780636352211e146101ed57806370a082311461021d578063715018a61461024d57610116565b806301ffc9a71461011b57806306fdde031461014b578063081812fc14610169578063095ea7b314610199575b600080fd5b61013560048036038101906101309190612063565b6103a7565b60405161014291906129a6565b60405180910390f35b610153610489565b60405161016091906129c1565b60405180910390f35b610183600480360381019061017e919061214c565b61051b565b60405161019091906128d7565b60405180910390f35b6101b360048036038101906101ae9190612027565b6105a0565b005b6101cf60048036038101906101ca9190611e76565b6106b8565b005b6101eb60048036038101906101e69190611e76565b610718565b005b6102076004803603810190610202919061214c565b610738565b60405161021491906128d7565b60405180910390f35b61023760048036038101906102329190611e11565b6107ea565b6040516102449190612c7d565b60405180910390f35b6102556108a2565b005b61025f6109df565b60405161026c91906128d7565b60405180910390f35b61027d610a09565b60405161028a91906129c1565b60405180910390f35b6102ad60048036038101906102a89190611f40565b610a9b565b005b6102c960048036038101906102c49190611ec5565b610c1c565b005b6102e560048036038101906102e0919061214c565b610c7e565b6040516102f291906129c1565b60405180910390f35b61031560048036038101906103109190611f7c565b610d25565b6040516103229190612c7d565b60405180910390f35b61034560048036038101906103409190611e3a565b610e69565b60405161035291906129a6565b60405180910390f35b61037560048036038101906103709190611e11565b610efd565b005b610391600480360381019061038c91906120b5565b6110a9565b60405161039e9190612c7d565b60405180910390f35b60007f80ac58cd000000000000000000000000000000000000000000000000000000007bffffffffffffffffffffffffffffffffffffffffffffffffffffffff1916827bffffffffffffffffffffffffffffffffffffffffffffffffffffffff1916148061047257507f5b5e139f000000000000000000000000000000000000000000000000000000007bffffffffffffffffffffffffffffffffffffffffffffffffffffffff1916827bffffffffffffffffffffffffffffffffffffffffffffffffffffffff1916145b80610482575061048182611116565b5b9050919050565b60606000805461049890612edd565b80601f01602080910402602001604051908101604052809291908181526020018280546104c490612edd565b80156105115780601f106104e657610100808354040283529160200191610511565b820191906000526020600020905b8154815290600101906020018083116104f457829003601f168201915b5050505050905090565b600061052682611180565b610565576040517f08c379a000000000000000000000000000000000000000000000000000000000815260040161055c90612b7d565b60405180910390fd5b6004600083815260200190815260200160002060009054906101000a900473ffffffffffffffffffffffffffffffffffffffff169050919050565b60006105ab82610738565b90508073ffffffffffffffffffffffffffffffffffffffff168373ffffffffffffffffffffffffffffffffffffffff16141561061c576040517f08c379a000000000000000000000000000000000000000000000000000000000815260040161061390612c3d565b60405180910390fd5b8073ffffffffffffffffffffffffffffffffffffffff1661063b6111ec565b73ffffffffffffffffffffffffffffffffffffffff16148061066a5750610669816106646111ec565b610e69565b5b6106a9576040517f08c379a00000000000000000000000000000000000000000000000000000000081526004016106a090612afd565b60405180910390fd5b6106b383836111f4565b505050565b6106c96106c36111ec565b826112ad565b610708576040517f08c379a00000000000000000000000000000000000000000000000000000000081526004016106ff90612c5d565b60405180910390fd5b61071383838361138b565b505050565b61073383838360405180602001604052806000815250610c1c565b505050565b6000806002600084815260200190815260200160002060009054906101000a900473ffffffffffffffffffffffffffffffffffffffff169050600073ffffffffffffffffffffffffffffffffffffffff168173ffffffffffffffffffffffffffffffffffffffff1614156107e1576040517f08c379a00000000000000000000000000000000000000000000000000000000081526004016107d890612b3d565b60405180910390fd5b80915050919050565b60008073ffffffffffffffffffffffffffffffffffffffff168273ffffffffffffffffffffffffffffffffffffffff16141561085b576040517f08c379a000000000000000000000000000000000000000000000000000000000815260040161085290612b1d565b60405180910390fd5b600360008373ffffffffffffffffffffffffffffffffffffffff1673ffffffffffffffffffffffffffffffffffffffff168152602001908152602001600020549050919050565b6108aa6111ec565b73ffffffffffffffffffffffffffffffffffffffff166108c86109df565b73ffffffffffffffffffffffffffffffffffffffff161461091e576040517f08c379a000000000000000000000000000000000000000000000000000000000815260040161091590612bdd565b60405180910390fd5b600073ffffffffffffffffffffffffffffffffffffffff16600660009054906101000a900473ffffffffffffffffffffffffffffffffffffffff1673ffffffffffffffffffffffffffffffffffffffff167f8be0079c531659141344cd1fd0a4f28419497f9722a3daafe3b4186f6b6457e060405160405180910390a36000600660006101000a81548173ffffffffffffffffffffffffffffffffffffffff021916908373ffffffffffffffffffffffffffffffffffffffff160217905550565b6000600660009054906101000a900473ffffffffffffffffffffffffffffffffffffffff16905090565b606060018054610a1890612edd565b80601f0160208091040260200160405190810160405280929190818152602001828054610a4490612edd565b8015610a915780601f10610a6657610100808354040283529160200191610a91565b820191906000526020600020905b815481529060010190602001808311610a7457829003601f168201915b5050505050905090565b610aa36111ec565b73ffffffffffffffffffffffffffffffffffffffff168273ffffffffffffffffffffffffffffffffffffffff161415610b11576040517f08c379a0000000000000000000000000000000000000000000000000000000008152600401610b0890612abd565b60405180910390fd5b8060056000610b1e6111ec565b73ffffffffffffffffffffffffffffffffffffffff1673ffffffffffffffffffffffffffffffffffffffff16815260200190815260200160002060008473ffffffffffffffffffffffffffffffffffffffff1673ffffffffffffffffffffffffffffffffffffffff16815260200190815260200160002060006101000a81548160ff0219169083151502179055508173ffffffffffffffffffffffffffffffffffffffff16610bcb6111ec565b73ffffffffffffffffffffffffffffffffffffffff167f17307eab39ab6107e8899845ad3d59bd9653f200f220920489ca2b5937696c3183604051610c1091906129a6565b60405180910390a35050565b610c2d610c276111ec565b836112ad565b610c6c576040517f08c379a0000000000000000000000000000000000000000000000000000000008152600401610c6390612c5d565b60405180910390fd5b610c78848484846115e7565b50505050565b6060610c8982611180565b610cc8576040517f08c379a0000000000000000000000000000000000000000000000000000000008152600401610cbf90612c1d565b60405180910390fd5b6000610cd2611643565b90506000815111610cf25760405180602001604052806000815250610d1d565b80610cfc8461165a565b604051602001610d0d9291906128b3565b6040516020818303038152906040525b915050919050565b6000600a60009054906101000a900473ffffffffffffffffffffffffffffffffffffffff1673ffffffffffffffffffffffffffffffffffffffff163373ffffffffffffffffffffffffffffffffffffffff1614610db7576040517f08c379a0000000000000000000000000000000000000000000000000000000008152600401610dae90612b9d565b60405180910390fd5b610dc16007611807565b6000610dcd600761181d565b905080600960008873ffffffffffffffffffffffffffffffffffffffff1673ffffffffffffffffffffffffffffffffffffffff16815260200190815260200160002081905550610e1e86828561182b565b7f19d9957d33eb6a2f6610cef11a24b8bd0a49a22a0dfefe23ca0b8ed8db5949bc8686868685604051610e5595949392919061293e565b60405180910390a180915050949350505050565b6000600560008473ffffffffffffffffffffffffffffffffffffffff1673ffffffffffffffffffffffffffffffffffffffff16815260200190815260200160002060008373ffffffffffffffffffffffffffffffffffffffff1673ffffffffffffffffffffffffffffffffffffffff16815260200190815260200160002060009054906101000a900460ff16905092915050565b610f056111ec565b73ffffffffffffffffffffffffffffffffffffffff16610f236109df565b73ffffffffffffffffffffffffffffffffffffffff1614610f79576040517f08c379a0000000000000000000000000000000000000000000000000000000008152600401610f7090612bdd565b60405180910390fd5b600073ffffffffffffffffffffffffffffffffffffffff168173ffffffffffffffffffffffffffffffffffffffff161415610fe9576040517f08c379a0000000000000000000000000000000000000000000000000000000008152600401610fe090612a5d565b60405180910390fd5b8073ffffffffffffffffffffffffffffffffffffffff16600660009054906101000a900473ffffffffffffffffffffffffffffffffffffffff1673ffffffffffffffffffffffffffffffffffffffff167f8be0079c531659141344cd1fd0a4f28419497f9722a3daafe3b4186f6b6457e060405160405180910390a380600660006101000a81548173ffffffffffffffffffffffffffffffffffffffff021916908373ffffffffffffffffffffffffffffffffffffffff16021790555050565b60006110b56007611807565b60006110c1600761181d565b90506110ce33828561182b565b7f493fec98bb96fbcfe334125b44aacc6280c090c225f8d41660bf50849ef409f38585858460405161110394939291906129e3565b60405180910390a1809150509392505050565b60007f01ffc9a7000000000000000000000000000000000000000000000000000000007bffffffffffffffffffffffffffffffffffffffffffffffffffffffff1916827bffffffffffffffffffffffffffffffffffffffffffffffffffffffff1916149050919050565b60008073ffffffffffffffffffffffffffffffffffffffff166002600084815260200190815260200160002060009054906101000a900473ffffffffffffffffffffffffffffffffffffffff1673ffffffffffffffffffffffffffffffffffffffff1614159050919050565b600033905090565b816004600083815260200190815260200160002060006101000a81548173ffffffffffffffffffffffffffffffffffffffff021916908373ffffffffffffffffffffffffffffffffffffffff160217905550808273ffffffffffffffffffffffffffffffffffffffff1661126783610738565b73ffffffffffffffffffffffffffffffffffffffff167f8c5be1e5ebec7d5bd14f71427d1e84f3dd0314c0f7b2291e5b200ac8c7c3b92560405160405180910390a45050565b60006112b882611180565b6112f7576040517f08c379a00000000000000000000000000000000000000000000000000000000081526004016112ee90612add565b60405180910390fd5b600061130283610738565b90508073ffffffffffffffffffffffffffffffffffffffff168473ffffffffffffffffffffffffffffffffffffffff16148061137157508373ffffffffffffffffffffffffffffffffffffffff166113598461051b565b73ffffffffffffffffffffffffffffffffffffffff16145b8061138257506113818185610e69565b5b91505092915050565b8273ffffffffffffffffffffffffffffffffffffffff166113ab82610738565b73ffffffffffffffffffffffffffffffffffffffff1614611401576040517f08c379a00000000000000000000000000000000000000000000000000000000081526004016113f890612bfd565b60405180910390fd5b600073ffffffffffffffffffffffffffffffffffffffff168273ffffffffffffffffffffffffffffffffffffffff161415611471576040517f08c379a000000000000000000000000000000000000000000000000000000000815260040161146890612a9d565b60405180910390fd5b61147c838383611844565b6114876000826111f4565b6001600360008573ffffffffffffffffffffffffffffffffffffffff1673ffffffffffffffffffffffffffffffffffffffff16815260200190815260200160002060008282546114d79190612df3565b925050819055506001600360008473ffffffffffffffffffffffffffffffffffffffff1673ffffffffffffffffffffffffffffffffffffffff168152602001908152602001600020600082825461152e9190612d6c565b92505081905550816002600083815260200190815260200160002060006101000a81548173ffffffffffffffffffffffffffffffffffffffff021916908373ffffffffffffffffffffffffffffffffffffffff160217905550808273ffffffffffffffffffffffffffffffffffffffff168473ffffffffffffffffffffffffffffffffffffffff167fddf252ad1be2c89b69c2b068fc378daa952ba7f163c4a11628f55a4df523b3ef60405160405180910390a4505050565b6115f284848461138b565b6115fe84848484611849565b61163d576040517f08c379a000000000000000000000000000000000000000000000000000000000815260040161163490612a3d565b60405180910390fd5b50505050565b606060405180602001604052806000815250905090565b606060008214156116a2576040518060400160405280600181526020017f30000000000000000000000000000000000000000000000000000000000000008152509050611802565b600082905060005b600082146116d45780806116bd90612f0f565b915050600a826116cd9190612dc2565b91506116aa565b60008167ffffffffffffffff811115611716577f4e487b7100000000000000000000000000000000000000000000000000000000600052604160045260246000fd5b6040519080825280601f01601f1916602001820160405280156117485781602001600182028036833780820191505090505b5090505b600085146117fb576001826117619190612df3565b9150600a856117709190612f58565b603061177c9190612d6c565b60f81b8183815181106117b8577f4e487b7100000000000000000000000000000000000000000000000000000000600052603260045260246000fd5b60200101907effffffffffffffffffffffffffffffffffffffffffffffffffffffffffffff1916908160001a905350600a856117f49190612dc2565b945061174c565b8093505050505b919050565b6001816000016000828254019250508190555050565b600081600001549050919050565b61183583836119e0565b61183f8282611bae565b505050565b505050565b600061186a8473ffffffffffffffffffffffffffffffffffffffff16611c22565b156119d3578373ffffffffffffffffffffffffffffffffffffffff1663150b7a026118936111ec565b8786866040518563ffffffff1660e01b81526004016118b594939291906128f2565b602060405180830381600087803b1580156118cf57600080fd5b505af192505050801561190057506040513d601f19601f820116820180604052508101906118fd919061208c565b60015b611983573d8060008114611930576040519150601f19603f3d011682016040523d82523d6000602084013e611935565b606091505b5060008151141561197b576040517f08c379a000000000000000000000000000000000000000000000000000000000815260040161197290612a3d565b60405180910390fd5b805181602001fd5b63150b7a0260e01b7bffffffffffffffffffffffffffffffffffffffffffffffffffffffff1916817bffffffffffffffffffffffffffffffffffffffffffffffffffffffff1916149150506119d8565b600190505b949350505050565b600073ffffffffffffffffffffffffffffffffffffffff168273ffffffffffffffffffffffffffffffffffffffff161415611a50576040517f08c379a0000000000000000000000000000000000000000000000000000000008152600401611a4790612b5d565b60405180910390fd5b611a5981611180565b15611a99576040517f08c379a0000000000000000000000000000000000000000000000000000000008152600401611a9090612a7d565b60405180910390fd5b611aa560008383611844565b6001600360008473ffffffffffffffffffffffffffffffffffffffff1673ffffffffffffffffffffffffffffffffffffffff1681526020019081526020016000206000828254611af59190612d6c565b92505081905550816002600083815260200190815260200160002060006101000a81548173ffffffffffffffffffffffffffffffffffffffff021916908373ffffffffffffffffffffffffffffffffffffffff160217905550808273ffffffffffffffffffffffffffffffffffffffff16600073ffffffffffffffffffffffffffffffffffffffff167fddf252ad1be2c89b69c2b068fc378daa952ba7f163c4a11628f55a4df523b3ef60405160405180910390a45050565b611bb782611180565b611bf6576040517f08c379a0000000000000000000000000000000000000000000000000000000008152600401611bed90612bbd565b60405180910390fd5b80600860008481526020019081526020016000209080519060200190611c1d929190611c35565b505050565b600080823b905060008111915050919050565b828054611c4190612edd565b90600052602060002090601f016020900481019282611c635760008555611caa565b82601f10611c7c57805160ff1916838001178555611caa565b82800160010185558215611caa579182015b82811115611ca9578251825591602001919060010190611c8e565b5b509050611cb79190611cbb565b5090565b5b80821115611cd4576000816000905550600101611cbc565b5090565b6000611ceb611ce684612cc9565b612c98565b905082815260208101848484011115611d0357600080fd5b611d0e848285612e9b565b509392505050565b6000611d29611d2484612cf9565b612c98565b905082815260208101848484011115611d4157600080fd5b611d4c848285612e9b565b509392505050565b600081359050611d6381613056565b92915050565b600081359050611d788161306d565b92915050565b600081359050611d8d81613084565b92915050565b600081519050611da281613084565b92915050565b600082601f830112611db957600080fd5b8135611dc9848260208601611cd8565b91505092915050565b600082601f830112611de357600080fd5b8135611df3848260208601611d16565b91505092915050565b600081359050611e0b8161309b565b92915050565b600060208284031215611e2357600080fd5b6000611e3184828501611d54565b91505092915050565b60008060408385031215611e4d57600080fd5b6000611e5b85828601611d54565b9250506020611e6c85828601611d54565b9150509250929050565b600080600060608486031215611e8b57600080fd5b6000611e9986828701611d54565b9350506020611eaa86828701611d54565b9250506040611ebb86828701611dfc565b9150509250925092565b60008060008060808587031215611edb57600080fd5b6000611ee987828801611d54565b9450506020611efa87828801611d54565b9350506040611f0b87828801611dfc565b925050606085013567ffffffffffffffff811115611f2857600080fd5b611f3487828801611da8565b91505092959194509250565b60008060408385031215611f5357600080fd5b6000611f6185828601611d54565b9250506020611f7285828601611d69565b9150509250929050565b60008060008060808587031215611f9257600080fd5b6000611fa087828801611d54565b945050602085013567ffffffffffffffff811115611fbd57600080fd5b611fc987828801611dd2565b935050604085013567ffffffffffffffff811115611fe657600080fd5b611ff287828801611dd2565b925050606085013567ffffffffffffffff81111561200f57600080fd5b61201b87828801611dd2565b91505092959194509250565b6000806040838503121561203a57600080fd5b600061204885828601611d54565b925050602061205985828601611dfc565b9150509250929050565b60006020828403121561207557600080fd5b600061208384828501611d7e565b91505092915050565b60006020828403121561209e57600080fd5b60006120ac84828501611d93565b91505092915050565b6000806000606084860312156120ca57600080fd5b600084013567ffffffffffffffff8111156120e457600080fd5b6120f086828701611dd2565b935050602084013567ffffffffffffffff81111561210d57600080fd5b61211986828701611dd2565b925050604084013567ffffffffffffffff81111561213657600080fd5b61214286828701611dd2565b9150509250925092565b60006020828403121561215e57600080fd5b600061216c84828501611dfc565b91505092915050565b61217e81612e27565b82525050565b61218d81612e39565b82525050565b600061219e82612d29565b6121a88185612d3f565b93506121b8818560208601612eaa565b6121c181613045565b840191505092915050565b60006121d782612d34565b6121e18185612d50565b93506121f1818560208601612eaa565b6121fa81613045565b840191505092915050565b600061221082612d34565b61221a8185612d61565b935061222a818560208601612eaa565b80840191505092915050565b6000612243603283612d50565b91507f4552433732313a207472616e7366657220746f206e6f6e20455243373231526560008301527f63656976657220696d706c656d656e74657200000000000000000000000000006020830152604082019050919050565b60006122a9602683612d50565b91507f4f776e61626c653a206e6577206f776e657220697320746865207a65726f206160008301527f64647265737300000000000000000000000000000000000000000000000000006020830152604082019050919050565b600061230f601c83612d50565b91507f4552433732313a20746f6b656e20616c7265616479206d696e746564000000006000830152602082019050919050565b600061234f602483612d50565b91507f4552433732313a207472616e7366657220746f20746865207a65726f2061646460008301527f72657373000000000000000000000000000000000000000000000000000000006020830152604082019050919050565b60006123b5601983612d50565b91507f4552433732313a20617070726f766520746f2063616c6c6572000000000000006000830152602082019050919050565b60006123f5602c83612d50565b91507f4552433732313a206f70657261746f7220717565727920666f72206e6f6e657860008301527f697374656e7420746f6b656e00000000000000000000000000000000000000006020830152604082019050919050565b600061245b603883612d50565b91507f4552433732313a20617070726f76652063616c6c6572206973206e6f74206f7760008301527f6e6572206e6f7220617070726f76656420666f7220616c6c00000000000000006020830152604082019050919050565b60006124c1602a83612d50565b91507f4552433732313a2062616c616e636520717565727920666f7220746865207a6560008301527f726f2061646472657373000000000000000000000000000000000000000000006020830152604082019050919050565b6000612527602983612d50565b91507f4552433732313a206f776e657220717565727920666f72206e6f6e657869737460008301527f656e7420746f6b656e00000000000000000000000000000000000000000000006020830152604082019050919050565b600061258d602083612d50565b91507f4552433732313a206d696e7420746f20746865207a65726f20616464726573736000830152602082019050919050565b60006125cd602c83612d50565b91507f4552433732313a20617070726f76656420717565727920666f72206e6f6e657860008301527f697374656e7420746f6b656e00000000000000000000000000000000000000006020830152604082019050919050565b6000612633601483612d50565b91507f6f6e6c79204462696c69612063616e206d696e740000000000000000000000006000830152602082019050919050565b6000612673602c83612d50565b91507f4552433732314d657461646174613a2055524920736574206f66206e6f6e657860008301527f697374656e7420746f6b656e00000000000000000000000000000000000000006020830152604082019050919050565b60006126d9602083612d50565b91507f4f776e61626c653a2063616c6c6572206973206e6f7420746865206f776e65726000830152602082019050919050565b6000612719602983612d50565b91507f4552433732313a207472616e73666572206f6620746f6b656e2074686174206960008301527f73206e6f74206f776e00000000000000000000000000000000000000000000006020830152604082019050919050565b600061277f602f83612d50565b91507f4552433732314d657461646174613a2055524920717565727920666f72206e6f60008301527f6e6578697374656e7420746f6b656e00000000000000000000000000000000006020830152604082019050919050565b60006127e5602183612d50565b91507f4552433732313a20617070726f76616c20746f2063757272656e74206f776e6560008301527f72000000000000000000000000000000000000000000000000000000000000006020830152604082019050919050565b600061284b603183612d50565b91507f4552433732313a207472616e736665722063616c6c6572206973206e6f74206f60008301527f776e6572206e6f7220617070726f7665640000000000000000000000000000006020830152604082019050919050565b6128ad81612e91565b82525050565b60006128bf8285612205565b91506128cb8284612205565b91508190509392505050565b60006020820190506128ec6000830184612175565b92915050565b60006080820190506129076000830187612175565b6129146020830186612175565b61292160408301856128a4565b81810360608301526129338184612193565b905095945050505050565b600060a0820190506129536000830188612175565b818103602083015261296581876121cc565b9050818103604083015261297981866121cc565b9050818103606083015261298d81856121cc565b905061299c60808301846128a4565b9695505050505050565b60006020820190506129bb6000830184612184565b92915050565b600060208201905081810360008301526129db81846121cc565b905092915050565b600060808201905081810360008301526129fd81876121cc565b90508181036020830152612a1181866121cc565b90508181036040830152612a2581856121cc565b9050612a3460608301846128a4565b95945050505050565b60006020820190508181036000830152612a5681612236565b9050919050565b60006020820190508181036000830152612a768161229c565b9050919050565b60006020820190508181036000830152612a9681612302565b9050919050565b60006020820190508181036000830152612ab681612342565b9050919050565b60006020820190508181036000830152612ad6816123a8565b9050919050565b60006020820190508181036000830152612af6816123e8565b9050919050565b60006020820190508181036000830152612b168161244e565b9050919050565b60006020820190508181036000830152612b36816124b4565b9050919050565b60006020820190508181036000830152612b568161251a565b9050919050565b60006020820190508181036000830152612b7681612580565b9050919050565b60006020820190508181036000830152612b96816125c0565b9050919050565b60006020820190508181036000830152612bb681612626565b9050919050565b60006020820190508181036000830152612bd681612666565b9050919050565b60006020820190508181036000830152612bf6816126cc565b9050919050565b60006020820190508181036000830152612c168161270c565b9050919050565b60006020820190508181036000830152612c3681612772565b9050919050565b60006020820190508181036000830152612c56816127d8565b9050919050565b60006020820190508181036000830152612c768161283e565b9050919050565b6000602082019050612c9260008301846128a4565b92915050565b6000604051905081810181811067ffffffffffffffff82111715612cbf57612cbe613016565b5b8060405250919050565b600067ffffffffffffffff821115612ce457612ce3613016565b5b601f19601f8301169050602081019050919050565b600067ffffffffffffffff821115612d1457612d13613016565b5b601f19601f8301169050602081019050919050565b600081519050919050565b600081519050919050565b600082825260208201905092915050565b600082825260208201905092915050565b600081905092915050565b6000612d7782612e91565b9150612d8283612e91565b9250827fffffffffffffffffffffffffffffffffffffffffffffffffffffffffffffffff03821115612db757612db6612f89565b5b828201905092915050565b6000612dcd82612e91565b9150612dd883612e91565b925082612de857612de7612fb8565b5b828204905092915050565b6000612dfe82612e91565b9150612e0983612e91565b925082821015612e1c57612e1b612f89565b5b828203905092915050565b6000612e3282612e71565b9050919050565b60008115159050919050565b60007fffffffff0000000000000000000000000000000000000000000000000000000082169050919050565b600073ffffffffffffffffffffffffffffffffffffffff82169050919050565b6000819050919050565b82818337600083830152505050565b60005b83811015612ec8578082015181840152602081019050612ead565b83811115612ed7576000848401525b50505050565b60006002820490506001821680612ef557607f821691505b60208210811415612f0957612f08612fe7565b5b50919050565b6000612f1a82612e91565b91507fffffffffffffffffffffffffffffffffffffffffffffffffffffffffffffffff821415612f4d57612f4c612f89565b5b600182019050919050565b6000612f6382612e91565b9150612f6e83612e91565b925082612f7e57612f7d612fb8565b5b828206905092915050565b7f4e487b7100000000000000000000000000000000000000000000000000000000600052601160045260246000fd5b7f4e487b7100000000000000000000000000000000000000000000000000000000600052601260045260246000fd5b7f4e487b7100000000000000000000000000000000000000000000000000000000600052602260045260246000fd5b7f4e487b7100000000000000000000000000000000000000000000000000000000600052604160045260246000fd5b6000601f19601f8301169050919050565b61305f81612e27565b811461306a57600080fd5b50565b61307681612e39565b811461308157600080fd5b50565b61308d81612e45565b811461309857600080fd5b50565b6130a481612e91565b81146130af57600080fd5b5056fea26469706673582212208b6d006eda2b4791b2c81307032a8190a8cfbe9016da980ddd074616eac564ba64736f6c63430008000033",
  "immutableReferences": {},
  "source": "\npragma solidity ^0.8.0;\n\n// import './ERC721.sol';\n// import './Ownable.sol';\n// import './Counters.sol';\n\nimport \"@openzeppelin/contracts/token/ERC721/ERC721.sol\";\nimport \"@openzeppelin/contracts/utils/Counters.sol\";\nimport \"@openzeppelin/contracts/access/Ownable.sol\";\n\ncontract DbeliaMintNFT is ERC721, Ownable {\n    \n    \n    using Strings for uint256;\n    \n    using Counters for Counters.Counter;\n    Counters.Counter private _tokenIds;\n    \n    // Optional mapping for token URIs\n    mapping (uint256 => string) private _tokenURIs;\n\n    //user id to token id mapping, to find the owner of the token.\n    mapping (address => uint256) private _tokenOwner;\n\n    address _owner;\n\n    event MintWithUSD(address userId, string cardId, string edition, string tokenURI, uint256 newTokenId);\n    \n    event MintWithETH(string cardId, string edition, string tokenURI, uint256 newTokenId);\n\n    constructor(string memory _name, string memory _symbol)\n        ERC721(_name, _symbol)\n    {\n        _owner = msg.sender;\n    }\n    \n\n    \n    function _setTokenURI(uint256 tokenId, string memory _tokenURI) internal virtual {//need to check\n        require(_exists(tokenId), \"ERC721Metadata: URI set of nonexistent token\");\n        _tokenURIs[tokenId] = _tokenURI;\n    }\n    \n    \n    function mintWithUSD(address userId, string memory  cardId, string memory edition, string memory tokenURI) public returns(uint256) {\n        \n        require(msg.sender == _owner,\"only Dbilia can mint\"); //dbilia is minting on behalf of user.\n        _tokenIds.increment();\n        uint256 newItemId = _tokenIds.current();\n        _tokenOwner[userId] = newItemId;\n        mintToken(userId, newItemId, tokenURI);\n        emit MintWithUSD(userId, cardId, edition, tokenURI, newItemId);\n        return newItemId;\n        \n    }\n    \n    function mintWithETH(string memory  cardId, string memory edition, string memory tokenURI) public returns(uint256) {\n        \n        _tokenIds.increment();\n        uint256 newItemId = _tokenIds.current();\n        mintToken(msg.sender, newItemId, tokenURI);\n        emit MintWithETH(cardId, edition, tokenURI, newItemId);\n        return newItemId;\n        \n    }\n\n    function mintToken(\n        address _to,\n        uint256 _tokenId,\n        string memory tokenURI_\n    ) internal {\n        \n        _mint(_to, _tokenId);\n        _setTokenURI(_tokenId, tokenURI_);\n        \n    }\n}\n",
  "sourcePath": "/Users/conduent/dbilioa/DbiliaAssignment/contracts/DbeliaMintNFT.sol",
  "compiler": {
    "name": "solc",
    "version": "0.8.0+commit.c7dfd78e.Emscripten.clang"
  },
  "schemaVersion": "3.4.0",
  "updatedAt": "2021-06-24T17:47:16.897Z",
  "networkType": "ethereum",
  "devdoc": {
    "kind": "dev",
    "methods": {
      "approve(address,uint256)": {
        "details": "See {IERC721-approve}."
      },
      "balanceOf(address)": {
        "details": "See {IERC721-balanceOf}."
      },
      "getApproved(uint256)": {
        "details": "See {IERC721-getApproved}."
      },
      "isApprovedForAll(address,address)": {
        "details": "See {IERC721-isApprovedForAll}."
      },
      "name()": {
        "details": "See {IERC721Metadata-name}."
      },
      "owner()": {
        "details": "Returns the address of the current owner."
      },
      "ownerOf(uint256)": {
        "details": "See {IERC721-ownerOf}."
      },
      "renounceOwnership()": {
        "details": "Leaves the contract without owner. It will not be possible to call `onlyOwner` functions anymore. Can only be called by the current owner. NOTE: Renouncing ownership will leave the contract without an owner, thereby removing any functionality that is only available to the owner."
      },
      "safeTransferFrom(address,address,uint256)": {
        "details": "See {IERC721-safeTransferFrom}."
      },
      "safeTransferFrom(address,address,uint256,bytes)": {
        "details": "See {IERC721-safeTransferFrom}."
      },
      "setApprovalForAll(address,bool)": {
        "details": "See {IERC721-setApprovalForAll}."
      },
      "supportsInterface(bytes4)": {
        "details": "See {IERC165-supportsInterface}."
      },
      "symbol()": {
        "details": "See {IERC721Metadata-symbol}."
      },
      "tokenURI(uint256)": {
        "details": "See {IERC721Metadata-tokenURI}."
      },
      "transferFrom(address,address,uint256)": {
        "details": "See {IERC721-transferFrom}."
      },
      "transferOwnership(address)": {
        "details": "Transfers ownership of the contract to a new account (`newOwner`). Can only be called by the current owner."
      }
    },
    "version": 1
  },
  "userdoc": {
    "kind": "user",
    "methods": {},
    "version": 1
  }
}